LOGON
8=FIX.4.2|9=76|35=A|49=BuySide|56=SellSide|34=1|52=20190605-11:27:06.897|98=0|108=30|141=Y|10=008|
